:1000000012C021C020C032C01EC01DC01CC01BC0F9
:100010001AC019C018C017C016C015C014C013C02C
:1000200012C011C010C011241FBECFE5D4E0DEBF46
:10003000CDBF20E0A0E6B0E001C01D92A637B20718
:10004000E1F736D1B2C2DCCF87B38E6387BB88B30A
:10005000817C88BB85B5886085BD85B5816085BD9F
:100060008FE983BD89B7806889BF08951F920F9279
:100070000FB60F9211242F933F938F939F938091EC
:1000800065009091660020916100309162008217B6
:10009000930710F0C19A01C0C198809167009091B8
:1000A000680020916100309162008217930710F080
:1000B000C29A01C0C29880916C0090916D0020910D
:1000C0006100309162008217930710F0C39A01C05B
:1000D000C3988091690090916A00209161003091ED
:1000E00062008217930710F0C49A01C0C4988091EF
:1000F0006F00909170002091610030916200821732
:10010000930710F0C59A01C0C59880916100909145
:100110006200883E934020F01092620010926100CD
:1001200080916000863929F481E080936E001092FE
:10013000600081E080936B0080916100909162008B
:1001400001969093620080936100809160008F5FC0
:10015000809360009F918F913F912F910F900FBEE0
:100160000F901F90189584B3807E84BB86B18668FB
:1001700086B93E9A089597B1987F982B97B9369A89
:100180003699FECF84B195B10895809164008111B4
:1001900004C0939A82B38F7882BB809164008130CF
:1001A00021F4949A82B3877982BB80916400823073
:1001B00021F4959A82B3877A82BB80916400833060
:1001C00021F4969A82B3877C82BB809164008F5F12
:1001D000843018F4809364000895109264000895A8
:1001E00080916300811104C0969A82B3877C82BBA0
:1001F00080916300813021F4959A82B3877A82BB23
:1002000080916300823021F4949A82B3877982BB13
:1002100080916300833021F4939A82B38F7882BBFC
:10022000809163008F5F843018F480936300089599
:100230001092630008959C01CB018C599F4F64E696
:1002400070E09FD18091740090917500E4E1E69F89
:10025000A001E79F500D1124BA0193D1892B11F40D
:1002600021503109C9012D32310510F48DE290E0A1
:1002700008959C0188E694E0861B970B64E670E085
:1002800080D18091740090917500E4E1E69FA00117
:10029000E79F500D1124BA0174D1892B11F42F5FFF
:1002A0003F4F2936310510F029E630E0C9010895A5
:1002B00081B3886781BB82B3877882BB87B38F7332
:1002C00087BB88B3806C88BBBFDE4DDF789481E04C
:1002D00080936B00809371008BE490E090936600B4
:1002E00080936500909368008093670084E690E0B7
:1002F00090936D0080936C0090936A0080936900E6
:10030000C2E0D3E014E005E080916B00813009F099
:1003100048C080917100813009F043C08091740021
:100320009091750001969093750080937400809170
:100330007400909175008935924020F010927500FC
:100340001092740080E017DF909373008093720026
:1003500080917200909173008A3E914050F46091B8
:10036000720070917300809165009091660063DF68
:1003700010C080917200909173008931924068F0B2
:100380006091720070917300809165009091660099
:1003900070DF909366008093650010926B00C093AD
:1003A000710080916B00813099F5809171008230ED
:1003B00079F581E0E0DE9093730080937200809184
:1003C0007200909173008A3E914050F460917200E7
:1003D0007091730080916700909168002CDF10C0CD
:1003E00080917200909173008931924068F0609121
:1003F000720070917300809167009091680039DFFE
:10040000909368008093670010926B00D093710006
:1004100080916B00813099F580917100833079F57E
:1004200082E0A9DE90937300809372008091720045
:10043000909173008A3E914050F4609172007091E7
:10044000730080916C0090916D00F5DE10C080917A
:100450007200909173008931924068F0609172004F
:100460007091730080916C0090916D0002DF909309
:100470006D0080936C0010926B001093710080915E
:100480006B00813099F580917100843079F583E0BB
:1004900072DE90937300809372008091720090914D
:1004A00073008A3E914050F4609172007091730025
:1004B0008091690090916A00BEDE10C08091720048
:1004C000909173008931924068F060917200709150
:1004D00073008091690090916A00CBDE90936A006E
:1004E0008093690010926B000093710080916B0003
:1004F0008130A1F580917100853081F584E03BDE8B
:1005000090937300809372008091720090917300B9
:100510008A3E914050F46091720070917300809116
:100520006F009091700087DE10C0809172009091F2
:1005300073008831924068F460917200709173008A
:1005400080916F009091700094DE90937000809382
:100550006F0010926B0081E08093710080916E00BB
:10056000813009F0D1CEB69902C00FDE07C0B7992D
:1005700002C036DE03C082B3877882BB10926E0061
:10058000C3CEAA1BBB1B51E107C0AA1FBB1FA617E6
:10059000B70710F0A61BB70B881F991F5A95A9F72C
:0E05A00080959095BC01CD010895F894FFCF91
:00000001FF
