:1000000012C021C020C032C01EC01DC01CC01BC0F9
:100010001AC019C018C017C016C015C014C013C02C
:1000200012C011C010C011241FBECFE5D4E0DEBF46
:10003000CDBF20E0A0E6B0E001C01D92AC36B20713
:10004000E1F744D04CC0DCCF87B38E6387BB88B365
:10005000817C88BB85B5886085BD85B5816085BD9F
:1000600080EA83BD89B7806889BF08951F920F9287
:100070000FB60F9211242F933F938F939F938091EC
:100080006000909161000196909361008093600000
:1000900020916200309163008217930710F0C19A9B
:1000A00001C0C1988091600090916100883E9340AA
:1000B00021F410926100109260009F918F913F9106
:1000C0002F910F900FBE0F901F901895BDDF789461
:1000D00084E690E09093630080936200FBCFF894F5
:0200E000FFCF50
:00000001FF
