:1000000012C021C020C032C01EC01DC01CC01BC0F9
:100010001AC019C018C017C016C015C014C013C02C
:1000200012C011C010C011241FBECFE5D4E0DEBF46
:10003000CDBF20E0A0E6B0E001C01D92A137B2071D
:10004000E1F7A5D036C1DCCF87B38E6387BB88B319
:10005000817C88BB85B5886085BD85B5816085BD9F
:1000600080EA83BD89B7806889BF08951F920F9287
:100070000FB60F9211242F933F935F936F937F934B
:100080008F939F93AF93BF93209162003091630051
:1000900080916000909161002817390710F0C19A93
:1000A00001C0C1982091640030916500281739077C
:1000B00010F0C29A01C0C29820916A0030916B0082
:1000C00080916000909161002817390710F0C39A61
:1000D00001C0C39820916700309168002817390744
:1000E00010F0C49A01C0C49880916C0090916D008A
:1000F00020916000309161008217930710F0C59A3B
:1001000001C0C598C90164EF71E0BFD0892B29F403
:10011000809166008F5F80936600809166008837CB
:1001200010F010926600283E334021F410926100D6
:100130001092600081E0809369008091600090914E
:10014000610001969093610080936000BF91AF9130
:100150009F918F917F916F915F913F912F910F9020
:100160000FBE0F901F90189584B3807E84BB86B11C
:10017000866886B93E9A089597B1987F982B97B96B
:10018000369A3699FECF24B135B1C90108955CDFA6
:10019000EBDF789421E0209369008BE490E090936A
:1001A00063008093620020936E0002E0C4E1D0E01F
:1001B00083E0F82E94E0E92E25E0D22E80916900AC
:1001C000813071F480916E00813051F480E0D4DF91
:1001D0009093700080936F001092690000936E00FE
:1001E00080916900813091F480916E00823071F4C9
:1001F00081E0C2DFBE0149D06F5C7F4F7093650024
:100200006093640010926900F0926E008091690022
:10021000813081F480916E00833061F482E0ACDF44
:1002200084529C4F90936B0080936A0010926900F7
:10023000E0926E0080916900813081F480916E00BF
:10024000843061F483E098DF84529C4F909368007F
:100250008093670010926900D0926E00109169003F
:10026000113009F0ABCF80916E00853009F0A6CF38
:1002700084E082DF84529C4F90936D0080936C00E9
:100280001092690010936E0099CFAA1BBB1B51E11D
:1002900007C0AA1FBB1FA617B70710F0A61BB70BF6
:1002A000881F991F5A95A9F780959095BC01CD019B
:0602B0000895F894FFCF51
:00000001FF
